S013000044726F73745F76312E30302E7372656371
S3150800000098040020191E0008830D0008EB0D00084F
S3150800001000000000000000000000000000000000D2
S315080000200000000000000000000000002F1A000871
S315080000300000000000000000F71D0008551D00081C
S31508000040031E000800000000351E0008371E0008C1
S31508000050391E00083B1E00087B1D0008691D0008A4
S31508000060000000003D1E00083F1E0008411E000853
S31508000070431E0008451E0008471E00080000000031
S31508000080491E000800000000000000004B1E000882
S31508000090000000004D1E00084F1E0008511E0008F3
S315080000A000000000531E000800000000551E00084E
S315080000B0F8B5040004D184214900A54800F060FE83
S315080000C02068002806D0C00604D1FF210A31A048BE
S315080000D000F056FE9F4D2078C0076ED56068002850
S315080000E008D0012806D0052804D0FF2110319848E9
S315080000F000F046FE68680C210140042907D06868AC
S315080001000C21014008290AD16868C00307D5286868
S31508000110800352D5606800284FD10120F2BD2868B7
S315080001208D49014029608D4F28683840286000F0C5
S3150800013029FE06002868800307D500F023FE801BE9
S3150800014087498842F6D30320F2BD6068012809D0A2
S31508000150002801D128680BE00528286808D1F9434A
S31508000160014329602868802149020143296005E086
S31508000170794901402960286807402F608027BF0217
S31508000180606800280CD000F0FDFD0600286838409D
S3150800019013D100F0F7FD801B71498842F6D3D2E7E8
S315080001A000F0F0FD06002868384006D000F0EAFDA9
S315080001B0801B6B498842F6D3C5E702200090206869
S315080001C0022101402CD0E068002806D0012804D07E
S315080001D0FF2152315E4800F0D3FD2069202804D360
S315080001E0A92149005A4800F0CBFDF827FF43686863
S315080001F00C21014007D068680C210140082930D13C
S315080002006868C0032DD428680099014002D0E068C8
S31508000210012882D1286807402069C0003843286031
S315080002202078000752D5206A00283ED0012807D03A
S31508000230C9214900464800F0A3FD206A002834D0A9
S31508000240686A01210143696200F09CFD0600686A3C
S31508000250009901403AD100F095FD801B6528F6D338
S3150800026071E7E068002828680FD00121014329605A
S3150800027000F088FD0600286800990140CAD100F000
S3150800028081FD801B6528F6D35DE701218843286038
S3150800029000F078FD0600286800990140C0D000F0FB
S315080002A071FD801B6528F6D34DE7686A01218843EE
S315080002B0686200F067FD0600686A0099014005D08B
S315080002C000F060FD801B6528F6D33CE720784007E0
S315080002D000D47EE0A068002808D0012806D00528AA
S315080002E004D0DE2149001A4800F04AFD8020400566
S315080002F0E9690143E961E9690840009000989C4F63
S315080003003868A90D0143396000F03CFD06003868DD
S31508000310C00505D400F036FD801B6528F7D312E723
S31508000320286A012188432862286A042188432862AA
S3150800033000F028FD0A4E070002200090286A0221D4
S3150800034001400FD000F01EFDC01BB042F4D3FAE600
S31508000350301C000800100240FFFFFEFFFFFFFBFFF6
S3150800036089130000A068012809D0002801D1286A4D
S315080003700AE00528286A07D1042101432962286A68
S3150800038001210143296206E0012188432862286A7F
S315080003900421884328623746A06800280CD000F05C
S315080003A0F1FC0600286A0099014012D100F0EAFC27
S315080003B0801BB842F6D3C6E600F0E4FC0600286ABD
S315080003C00099014005D000F0DDFC801BB842F6D349
S315080003D0B9E62078C00635D56069002809D0012815
S315080003E007D00421C943884203D08849884800F0C9
S315080003F0C7FCA069202804D381218900844800F01D
S31508000400BFFC6069F827FF43012800D0B2E0686B9B
S31508000410042101436963686B01210143696300F0A4
S31508000420B1FC0600686B0099014005D100F0AAFCF2
S31508000430801B6528F6D386E6686B0740A069C0006E
S3150800044038436863606A002809D0012809D0022861
S3150800045007D070496E4800F093FC606A002800D106
S31508000460D2E068680C210140082900D155E68027AA
S31508000470BF04694E606A022800D0B6E0A06A002868
S3150800048007D0790A884204D0A0218900604800F084
S3150800049077FCE06A002837D0F909884234D0490049
S315080004A0884231D0C021090388422DD07909884273
S315080004B02AD0A0214903884226D0C0214903884270
S315080004C022D0E021490388421ED0390988421BD030
S315080004D090218903884217D0A0218903884213D026
S315080004E0B021890388420FD0C021890388420BD0E6
S315080004F0D0218903884207D0E0218903884203D0A6
S315080005004649434800F03CFC206B002821D00128CE
S315080005101FD002281DD003281BD0042819D005286F
S3150800052017D0062815D0072813D0082811D009286F
S315080005300FD00A280DD00B280BD00C2809D00D286F
S3150800054007D00E2805D00F2803D03549304800F0CB
S3150800055017FC286806402E6000F014FC0600286880
S31508000560384024D000F00EFC801B6528F7D3EAE556
S31508000570007000400421C9438842686B02D10140DB
S31508000580696359E7042101436963686B012188435C
S31508000590686300F0F7FB0600686B0099014000D11C
S315080005A050E700F0EFFB801B6528F5D3CBE5E86A3A
S315080005B00F218843216B0143E962686819490140A4
S315080005C0E06A0843A16A014369602868790801431B
S315080005D0296000F0D7FB04002868384014D100F0E1
S315080005E0D1FB001B6528F7D3ADE5286806402E60C9
S315080005F000F0C8FB04002868384005D000F0C2FBAC
S31508000600001B6528F7D39EE50020F2BD0302000013
S31508000610301C000877020000FFFFFFFE8102000081
S3150800062082020000FFFFC2FFFEB504000D00002C89
S3150800063003D1A149A14800F0A3FB2078400704D1C3
S31508000640B82189009D4800F09BFB0095002D05D038
S31508000650012D03D09A49994800F092FB99480190D8
S315080006608027BF04984D022698480068C107C90F1D
S315080006700098814200D37CE09448016801229143A6
S31508000680009A0A4302600068C107C90F00988142B0
S3150800069034D1206830401CD0A068002813D08028A8
S315080006A011D090280FD0A0280DD0B0280BD0C02884
S315080006B009D0D02807D0E02805D0F02803D08449EF
S315080006C07E4800F05DFB6868F0218843A168014315
S315080006D069602078C00700D4C9E06068002814D093
S315080006E0012808D002280CD07A49744800F048FB43
S315080006F06068012803D12868800309D4B5E0022878
S3150800070003D12868074003D1AFE028680640FBD02C
S3150800071068680321884361680143696000F032FB19
S3150800072006006068674F01280BD168680C210140F4
S31508000730042916D000F026FB801BB842F5D3032007
S31508000740FEBD02280AD168680C210140082908D094
S3150800075000F018FB801BB842F5D3F0E768680C2157
S31508000760014000D183E000F00DFB801BB842F5D3B1
S31508000770E5E7206830401CD0A068002813D0802800
S3150800078011D090280FD0A0280DD0B0280BD0C028A3
S3150800079009D0D02807D0E02805D0F02803D05D4935
S315080007A0464800F0EDFA6868F0218843A1680143DD
S315080007B069602078C0074BD56068002815D00128E5
S315080007C009D002280DD0D92189003C4800F0D8FA72
S315080007D06068012803D12868800309D445E0022807
S315080007E003D12868074003D13FE0286806403CD07B
S315080007F068680321884361680143696000F0C2FAAA
S315080008000600606801280BD168680C21014004299C
S315080008101ED000F0B7FA801B01998842F4D38EE700
S31508000820284F02280AD168680C21014008290FD0F0
S3150800083000F0A8FA801BB842F5D380E768680C2157
S31508000840014005D000F09EFA801BB842F6D376E741
S315080008501E48016801229143009A0A430260006813
S31508000860C107C90F0098814201D00120FEBD20783A
S3150800087040071BD5E068002812D0290D88420FD002
S31508000880A021C90088420BD0C021C900884207D0E0
S31508000890E021C900884203D02649084800F070FACA
S315080008A0686825490140E06808436860002000F050
S315080008B06FFA0020FEBD0000DF020000301C0008B1
S315080008C0E1020000891300000010024000200240E7
S315080008D0F7020000FE020000184B196818480C229F
S315080008E00A40082A00D0704730B50F221BA48D0C89
S315080008F01540645D9B6AC90307D500BF1BA11A4052
S31508000900895C00F057FA604330BD20000D49484322
S3150800091030BD00005D03000080B5FFF7DDFF00BFB6
S315080009200AA1064A12681206120F895CC8400649CF
S31508000930086002BDCB030000FFF8FFFF0410024069
S3150800094000127A0000093D00900000200000000017
S315080009500102030401020304060708090203040549
S31508000960060708090A0B0C0D0E0F101001020304E6
S3150800097005060708090A0B0C0D0E0F10F0B591486D
S315080009800121016108220260042303600224046134
S31508000990A54D00262E706E89F60701D5036000E086
S315080009A00361046004612E780F2E01D10160016194
S315080009B06F897F086F81761C2E70F6B2102EEADBDF
S315080009C00261F0BD1CB5984C00200DE020896081BD
S315080009D0FA20C00000900098A067A06F0028FCD1FC
S315080009E0FFF7CCFF2089401C20812089BB4988421B
S315080009F0ECD113BDFEB500F0F9F900F073F900F07B
S31508000A0005FA894C9B48206100276761A761E76161
S31508000A100120206204206062A762E7620120206349
S31508000A206763E763276460642000103000F03EFACD
S31508000A30062000908020400101900004029069463B
S31508000A402000103000F07AFC6781FFF797FF8020BE
S31508000A5000019021C9058862802088620120B54975
S31508000A6088626766E7700220E080677020001030B1
S31508000A7000F072FB64212000103000F0CFFB002844
S31508000A8008D12000103000F043FCA081200010306F
S31508000A9000F099FBA089AC49884201DB0121E1807D
S31508000AA0C821C900884200DAE7800122012107200F
S31508000AB000F009FE072000F014FE0222012106209C
S31508000AC000F001FE062000F00CFEFFF757FFA348D2
S31508000AD000900098A067A06F0028FCD16781FFF7F7
S31508000AE04DFF9025ED059E4E0EE027716781FFF7B5
S31508000AF045FFE7656770A77080210901A962802113
S31508000B00A96201208B4988622079E16D002901D10B
S31508000B100128EAD00028F7D00128F5D10821854810
S31508000B2000F062FF00281CD11021824800F05CFF0B
S31508000B30012816D180214901284600F055FF0128D1
S31508000B400FD1FFF73FFF012000900099A167A16F21
S31508000B500029FCD1A070E665C102A96175498861C2
S31508000B60D2E780214901280000F03EFF00281AD16B
S31508000B701021704800F038FF012814D108216D486B
S31508000B8000F032FF01280ED176486081FFF7F6FEA5
S31508000B90012000900099A167A16F0029FCD1A070DF
S31508000BA0E6658021D9E7A0780128ADD14C48608157
S31508000BB0FFF7E4FEA770E66580200001A8628020A2
S31508000BC0A8629EE71800004838B51749CA88012A5E
S31508000BD002D1654A654B02E0654AA023DB00CC6E6C
S31508000BE00D6F64194D6F64198D6E824204D20A6EB8
S31508000BF0402A0AD040200EE0904206D2834204D210
S31508000C00086E50280ED0502005E098420AD2086E89
S31508000C10102807D010200866086E20184019488149
S31508000C20FFF7ACFE31BD00000000002010B5514CA6
S31508000C30E06F401EE0671CD12079012816D12000FC
S31508000C40103000F089FA64212000103000F0E6FA2E
S31508000C50002804D12000103000F05AFBA0812000A3
S31508000C60103000F0B0FAA089FFF7AEFFFA20C000F6
S31508000C70E06710BD0024014070B5394C3D4D102881
S31508000C8024D101262879002811D1A889FFF79CFFCD
S31508000C90E86E296F4018696F4018296E4018A96ECA
S31508000CA040186881FFF76AFEEC652E7170BD002456
S31508000CB06C81FFF763FEEC65AC702F48F1020160AA
S31508000CC0802101602D4806602C7170BD082803D06C
S31508000CD080214901884200D1EC6570BDFFFF000004
S31508000CE0F60A000030B591B002200490012407945A
S31508000CF01020089000250D9504A8FFF7D9F900944F
S31508000D0001950295039500216846FFF78DFCFFF7CC
S31508000D1003FEFA21890000F04DF800F0F0FC0420EB
S31508000D2000F001FD002200210020C04300F0CBFCAA
S31508000D3011B030BD000400480E48816F002902D06A
S31508000D40816F491E81677047090700000948C16D10
S31508000D50002902D0C16D491EC1657047881300007D
S31508000D6060EA0000C90D0000750B0000830A000048
S31508000D704605000000000020280000482804004816
S31508000D807047FEE701480068704700BF94000020DE
S31508000D9010B50400FFF7C0FDFA21890000F00AF833
S31508000DA000F0ADFC002221000020C04300F08BFCBF
S31508000DB0002010BD094214D088420FD30122030C2B
S31508000DC001D100041204002300185B418B4200D3B2
S31508000DD05B1A5241F8D31900100070470100002031
S31508000DE0704708B500F022FE08BDFEE780B5064844
S31508000DF0016810220A4302600020FFF7C9FF00F0CD
S31508000E0017FE002002BD000000200240F8B586B09B
S31508000E108021C903214802680A430260026811401A
S31508000E20059105998021890202680A4302600268D1
S31508000E301140059105998021C90202680A4302609A
S31508000E40006801400591059815480090012501950F
S31508000E500024029403949027FF056946380000F0A1
S31508000E6087FC212000900195029403940D4E694653
S31508000E70300000F07DFC280300900B4D019502948C
S31508000E806946380000F074FC1A2000900195029417
S31508000E906946300000F06CFC07B0F0BD1410024043
S31508000EA0BF0800000004004800002110F8B504003F
S31508000EB00026002C01D10120F2BDA54D2068A549C8
S31508000EC0884204D0FF2176312800FFF759FF606871
S31508000ED000280CD08021C905884208D0802109063F
S31508000EE0884204D0BB2149002800FFF749FFA068C3
S31508000EF000280AD0082808D0102806D0182804D0B8
S31508000F00FF2178312800FFF73BFFE068002806D06C
S31508000F10202804D0BC2149002800FFF731FF2069AA
S31508000F20012806D0022804D0FF217A312800FFF7CD
S31508000F3027FF206A002806D0012804D0BD214900D1
S31508000F402800FFF71DFF606A002806D0012804D094
S31508000F50FF217C312800FFF713FFE06A00280FD035
S31508000F608021C90088420BD04900884208D0C02198
S31508000F700901884204D0BE2149002800FFF700FF76
S31508000F80A06A00280BD0402809D0C02807D0FF2126
S31508000F90C231884203D044392800FFF7F1FE206B9E
S31508000FA0002806D0012804D0BF2149002800FFF7F1
S31508000FB0E7FE6069042808D0082806D00C2804D063
S31508000FC0FF2180312800FFF7DBFE606B012806D081
S31508000FD0002804D0C02149002800FFF7D1FEA069E7
S31508000FE0002806D0012804D0FF2182312800FFF707
S31508000FF0C7FEE069002806D0012804D0C1214900AF
S315080010002800FFF7BDFE250040356868002804D192
S31508001010A8602870200000F01CFD102168680840B0
S3150800102003D1226804209368034000D08AE06F68E1
S31508001030784B3B4002271F436F6093689B079B0FC3
S31508001040012B05D11368DB070FD4D3681B040CD416
S31508001050D3681827BB43A7681F43D760226813695C
S315080010609B009B0867681F4317612268D3686A4F0D
S315080010701F40D760626B012A01D0830200E000237B
S315080010802269022A01D1009000E00096226AA0692E
S315080010908003E769FF030743500338430343E068C7
S315080010A01843009B0343206B40001843636A012BD7
S315080010B004D1002A02D1020008031043A26AFF23C2
S315080010C0C2339A4203D00300E06A104318432268E9
S315080010D0D3680343D360A26B0B069A420DD0012A4C
S315080010E00BD0022A09D0032A07D0042A05D0052ADC
S315080010F003D0062A01D0072A0CD12268536907278C
S31508001100BB435361226853693827E75D7F077F0F22
S315080011101F4357610222D2432368DB68744C1C4084
S31508001120844206D1AE6068680240012010436860B8
S315080011300CE068680240114369600126A8683043DC
S31508001140A86003E068680143696001263000F2BDC3
S31508001150201B000800240140F8B5040000270025DC
S3150800116020686449884203D064496348FFF708FE4B
S31508001170042620688068304022D14020205C01285F
S3150800118001D10220F2BD012040216054E069012806
S3150800119004D0200000F0CEF9050012D1200040301E
S315080011A04168584A0A40B101114341608760077097
S315080011B01C2021680860206881680E43866000E06C
S315080011C002252800F2BD70B5040020684949884206
S315080011D003D04B494848FFF7D3FD4020205C01283F
S315080011E001D1022070BD2500403501262E70200051
S315080011F000F00FFA010009D1200000F0D9F901002A
S3150800120004D16968034A0A4016436E6000212970B2
S3150800121070BD0000FFFEFFFF1902FEFFF3B583B0A5
S3150800122000683449884203D037493348FFF7A8FD98
S31508001230039C403420270025012603984069082886
S315080012400BD003980068C068304005D06068074333
S3150800125067602570012049E00C200090FFF792FD99
S315080012600190039801680868009A024014D104980E
S315080012700021C9438842F4D0002806D0FFF782FD32
S315080012800199401A04998142EBD26068042101430E
S3150800129061602570032029E003986268730213438E
S315080012A06360CA68C0231B01134018D1026A002A6A
S315080012B015D10A68120712D58A68520709D44A68EE
S315080012C00C239A434A606168104A0A4016436660CE
S315080012D005E061680F436760A1680E43A6608169EF
S315080012E0002902D10C2100680160002005B0F0BD7C
S315080012F0E7FF3F8300240140201B0008E9020000A5
S315080013002A030000FEF1FFFF61030000FFFEFFFF56
S3150800131010B5040020680649884203D006490548E6
S31508001320FFF72EFD206808210160006C10BD000043
S3150800133000240140201B000849050000FEB50400F2
S315080013400D0000260027009620687049884203D0C1
S315080013506F497048FFF714FD00952868002825D0C6
S31508001360012823D0022821D003281FD004281DD005
S3150800137005281BD0062819D0072817D0082815D005
S31508001380092813D00A2811D00B280FD00C280DD005
S315080013900D280BD00E2809D00F2807D0102805D005
S315080013A0112803D05C495B48FFF7EAFC00984068BF
S315080013B080214901884206D0491C884203D05749F2
S315080013C05448FFF7DDFCA06B80256D05A84223D0A5
S315080013D0012821D002281FD003281DD004281BD09D
S315080013E0052819D0062817D0072815D00098806830
S315080013F0A84211D001280FD002280DD003280BD0FF
S31508001400042809D0052807D0062805D0072803D0C0
S3150800141043494048FFF7B4FC4020205C012801D12D
S315080014200220FEBD01204022A05421688A68520786
S315080014305ED4009A1268904001903A48009A526821
S31508001440394B9A428A6A019B42D013438B62A16B3D
S31508001450A9421FD001291DD002291BD0032919D062
S31508001460042917D0052915D0062913D0072911D024
S3150800147022680721009B9B6855690D40AB4209D03D
S3150800148053698B43536122685369009DAD682940AF
S315080014901943516100990968102916D0112930D1CC
S315080014A002681143016000980068102829D11F4876
S315080014B000681F49FFF77EFC0A2148430090009800
S315080014C000281ED00098401EF8E780210904E7E7A7
S315080014D09A438A6200990968102907D0112910D100
S315080014E01121C9430268114001600AE02F49F9E752
S315080014F021004031496820220A43210040314A60D0
S315080015000127402026543800FEBD00000024014073
S315080015102C060000201B00082D0600002E060000E1
S315080015203206000008270140011000009000002044
S3150800153040420F00F8B505000020009028680124F5
S3150800154081688907890F012905D1016821402AD1B7
S31508001550C168090427D410278168464A0A401AD167
S31508001560816821438160444800684449FFF722FCAA
S3150800157001E00098401E009000980028F9D1FFF776
S3150800158001FC06002868006820400CD1FFF7FAFB2A
S31508001590801B0328F6D3686C07436F64A86C044362
S315080015A0AC640120F2BD0020F2BD0000FFFF7FFF02
S315080015B0F8B506003068032182680A40012A26D158
S315080015C001240268224002D1C26812041FD51025E0
S315080015D0826805231340012B11D182680223134325
S315080015E0836030680160FFF7CDFB070030688068CC
S315080015F020400CD0FFF7C6FBC01B0328F6D3706C3F
S3150800160005437564B06C0443B4640120F2BD002040
S31508001610F2BDF8B5040020681949884203D0194973
S315080016201948FFF7ADFB20680427816839401ED0AA
S3150800163010258168394005D08168890702D48168F8
S3150800164029438160FFF79EFB0600206880683840C2
S315080016500DD0FFF797FB801B0228F6D9606C05436F
S315080016606564A06C01210143A1640120F2BD00203C
S31508001670F2BD0000170000809000002040420F00D5
S3150800168000240140CB070000201B000810B5C2004B
S3150800169018231340FF249C40E2438907090E99400A
S315080016A0030007D52B4B0007000F08388008800079
S315080016B0181803E028489B089B00C01803681A40BE
S315080016C01143016010BD38B504000D00042D03D385
S315080016D09D212248FFF754FB29002000FFF7D6FF7B
S315080016E031BD10B5040003D5AD211C48FFF748FBF2
S315080016F00120E106C90E88401949086010BD10B5D9
S31508001700401E80214904884201D3012010BD154C92
S31508001710606003210020C043FFF7B8FF0020A060E7
S315080017200721216010BD10B50E4C04280BD00028E7
S3150800173004D0FF2138310948FFF722FB206804212D
S315080017408843206010BD206804210143216010BD34
S31508001750000000001CED00E000E400E0941A000818
S3150800176000E100E010E000E080B5FFF75FFA01BD98
S31508001770FEB507000C009020C00587420FD08E48A2
S3150800178087420CD08D48874209D08D48874206D0BB
S315080017908C48874203D0C3218B48FFF7F1FA2068AB
S315080017A0000403D1C4218848FFF7EAFA60680028D4
S315080017B01FD001281DD011281BD0022819D01228A5
S315080017C017D08249884214D08149884211D081496C
S315080017D088420ED0804988420BD08049884208D07A
S315080017E07F49884205D0032803D0C5217648FFF7EC
S315080017F0C7FAA068002807D0012805D0022803D018
S31508001800C6217148FFF7BCFA2600002430E00525FA
S3150800181003E06B4B9F42FAD103258D4015430560C3
S3150800182070480268019BD9430A407368DB0302D5F6
S315080018301300019A1A43026042680A4073689B03C0
S3150800184002D51300019A1A43426082680A407368F7
S31508001850DB0202D51300019A1A438260C26811405E
S315080018607268920202D50A0001991143C160641C8C
S3150800187030680100E14000D19DE001250121A14029
S315080018800140019101980028F1D0A00069464870EE
S315080018907068022801D0122823D19020C0058742FB
S315080018A006D04548874203D0D5214748FFF768FA4E
S315080018B03069072803D3D6214348FFF761FAE008C1
S315080018C080003918086A6A4653781C221A400F2382
S315080018D09340984333699C46130062469A400243F4
S315080018E00A62386861006A461170032112789140CD
S315080018F0CA4302921146014030798007800F6A4632
S3150800190012789040084338607068012805D002288C
S3150800191003D0112801D012281DD1F068002807D05D
S31508001920012805D0032803D0EA212748FFF728FA1B
S31508001930B96802980840F1686A46127891400143EE
S31508001940B96078680121A14088437168090929406E
S31508001950A14001437960F96802980840B1686A466F
S31508001960127891400143F9607068C00000D47EE7A0
S315080019702A480168294301600068284002900298B5
S315080019802748A10889004018026869464B780C2147
S3150800199019400F238B409A439023DB059F4201D1C0
S315080019A000253AE7044B9F42FBD0044B9F4200D0E8
S315080019B02FE7022531E7F7BD000400480008004874
S315080019C0000C004800140048A81B0008000011106D
S315080019D00000211000003110000012100000221033
S315080019E0000032100004014038B504000D0004D18F
S315080019F0FF2190310B48FFF7C3F92069284000D032
S31508001A000120C0B232BD084A1368034000D17047AE
S31508001A1080B51060FFF730F901BD000018100240CC
S31508001A2008000140A81B0008140401407047FEE79F
S31508001A3080B5012015490A6802430A60096808400A
S31508001A4000900098002200210020C043FFF73BFECB
S31508001A5001BD00680E49884200D0704780B586B03F
S31508001A60480D0A490A6802430A6009680840009056
S31508001A70009840200190032002900020039001A9BD
S31508001A809020C005FFF774FE07B000BD181002408D
S31508001A9000240140433A5C55736572735C6D697343
S31508001AA074795C4F6E6544726976655C576F726BC4
S31508001AB05F46616C636F6E65785C4669726D7761C7
S31508001AC072655C417263686976655C4C45445F5033
S31508001AD04C41595C50584C332D434E435F57445242
S31508001AE0483030385C447269766572735C53544D7D
S31508001AF03332463078785F48414C5F447269766580
S31508001B00725C5372635C73746D3332663078785FD7
S31508001B1068616C5F636F727465782E6300000000FD
S31508001B20433A5C55736572735C6D697374795C4F7F
S31508001B306E6544726976655C576F726B5F46616C59
S31508001B40636F6E65785C4669726D776172655C4134
S31508001B507263686976655C4C45445F504C41595CD4
S31508001B6050584C332D434E435F5744524830303813
S31508001B705C447269766572735C53544D33324630F1
S31508001B8078785F48414C5F4472697665725C537237
S31508001B90635C73746D3332663078785F68616C5F46
S31508001BA06164632E63000000433A5C557365727383
S31508001BB05C6D697374795C4F6E6544726976655CB1
S31508001BC0576F726B5F46616C636F6E65785C4669CA
S31508001BD0726D776172655C417263686976655C4CA3
S31508001BE045445F504C41595C50584C332D434E4345
S31508001BF05F574452483030385C4472697665727370
S31508001C005C53544D3332463078785F48414C5F44D4
S31508001C1072697665725C5372635C73746D3332668F
S31508001C203078785F68616C5F6770696F2E63000053
S31508001C30433A5C55736572735C6D697374795C4F6E
S31508001C406E6544726976655C576F726B5F46616C48
S31508001C50636F6E65785C4669726D776172655C4123
S31508001C607263686976655C4C45445F504C41595CC3
S31508001C7050584C332D434E435F5744524830303802
S31508001C805C447269766572735C53544D33324630E0
S31508001C9078785F48414C5F4472697665725C537226
S31508001CA0635C73746D3332663078785F68616C5F35
S31508001CB07263632E630000001148016801220A431B
S31508001CC0026041680F4A0A40426001680E4A0A40AB
S31508001CD0026001680D4A0A40026041680C4A0A40DF
S31508001CE04260C16A0F229143C162016B094A0A40E8
S31508001CF00263416B01229143416300218160704771
S31508001D00001002400CB8FF08FFFFF6FEFFFFFBFFBE
S31508001D10FFFFC0FFECFEFFFF30B5016841184468BD
S31508001D2062088A188368E40704D54C461B1901E043
S31508001D30641C06D191420BD00C7864B2491C0D780C
S31508001D40491C1D705B1C002CF2D4641EF7D5F1E704
S31508001D500C3030BD80B500F015F8FFF705FDFEF72D
S31508001D60EBFFFEF7F3FF01BD80B51020FFF74BFE32
S31508001D7080204001FFF747FE01BD80B50820FFF728
S31508001D8042FE01BD02480168491C0160704700BF58
S31508001D909400002010B5074979441831064C7C4454
S31508001DA0163404E0081D0A68891888470100A1420C
S31508001DB0F8D110BD08000000140000005DFFFFFF09
S31508001DC096000000500000000000002000F00DF80A
S31508001DD0002801D0FFF7DEFF00BF00BF002000BFCC
S31508001DE000BFFEF707FE00F002F80120704780B535
S31508001DF000F002F801BDFEE70746384600F002F893
S31508001E00FBE7FEE780B500BF00BF024A11001820B5
S31508001E10ABBEFBE7260002000148804701480047A1
S31508001E20B91C0008291E000800BF00BF00BF00BF7C
S31508001E30FFF7CCFFFEE7FEE7FEE7FEE7FEE7FEE775
S31508001E40FEE7FEE7FEE7FEE7FEE7FEE7FEE7FEE75C
S31508001E50FEE7FEE7FEE7A0000040F8000080FD0070
S31508001E600001FD000302000001F90001D007F60099
S31308001E700A010203040607080900127AFB009D
S70508001E29AB
